S0180000706C6174696E756D5F66726565646F6D2E7372656361
S1130000F805002011040000D1160000D1160000EC
S1130010D1160000D1160000D1160000D116000040
S1130020D1160000D1160000D1160000D116000030
S1130030D1160000D1160000D1160000D116000020
S1130040D1160000D1160000D1160000D116000010
S1130050D1160000D1160000D1160000D116000000
S1130060D1160000D1160000D1160000D1160000F0
S1130070D1160000D1160000D1160000D1160000E0
S1130080D1160000D1160000D1160000D1160000D0
S1130090D1160000D1160000D1160000D1160000C0
S11300A0D1160000D1160000D1160000D1160000B0
S11300B037100000D1160000D1160000D116000040
S11300C0D1160000D1160000D1160000D116000090
S11300D0D1160000D1160000D1160000D116000080
S11300E0D1160000D1160000D1160000D116000070
S11300F0D1160000D1160000D1160000D116000060
S1130400FFFFFFFFFFFFFFFFFFFFFFFFFEFFFFFFF9
S113041000200021002200230024002500260027BC
S113042062B600F0DFFAFEE710B50C00116801298E
S113043002D0022904D009E0C0B25168884705E01F
S1130440916808709068401C9060FFE72068401C29
S1130450206010BDF0B51C000026050000202870A7
S11304606D1C002A1CD00F68002F09D13020287081
S1130470761C3000F0BD30320F002A706D1C761CE3
S1130480002FF6D03800210000F040FA01000800E7
S113049060433A1A002AEED5D04302003132EBE72A
S11304A00F68002F08D130202870761CE1E737311F
S11304B0070029706D1C761C002FDAD0380021004B
S11304C000F027FA01006143791A0A29EFD230318A
S11304D0EEE7F8B50E0015001F00040005E03A0031
S11304E029003020FFF7A0FF641CB442F7DBF1BD04
S11304F0F8B50E0015001F00040005E03A002900BD
S11305002020FFF791FF641CB442F7DBF1BDF1B585
S113051090B01400002000900D0004E0109A694689
S1130520FFF782FF6D1C2878002800D1C3E125283D
S113053011D00A2804D0109A6946FFF775FF09E024
S1130540109A69460D20FFF76FFF109A69460A203A
S1130550FFF76AFFE6E70027002102E038000127E1
S1130560074300291FD16D1C287820280CD023288C
S113057012D02B2804D02D28F0D0302808D00FE03A
S1130580380002270743ECE7380004270743E8E76D
S1130590380008270743E4E7380010270743E0E75B
S11305A06D1E0121DDE700200290002105E0029A82
S11305B00A235A43101830380290002908D16D1CC0
S11305C028780200303A092AF1D96D1E0121F4E796
S11305D06D1C28782E280BD10021FFE7002908D1B3
S11305E06D1C287830380928F8D96D1E0121F5E7EB
S11305F06D1E6D1C28784C2806D0682802D06C2803
S113060001D002E002E001E000E06D1E6D1C2878DC
S11306100100582971D0622900D1CAE0632900D1B0
S113062013E1642913D0692911D06E2900D13DE169
S11306306F2900D1B2E0702900D1C5E0732900D13F
S11306400BE1752900D1CAE0782956D066E7206805
S1130650241D06900A23012206A907A8FFF7FAFE23
S1130660060007A8801905900698002803D52D20B8
S11306700190761C0DE0B80703D52B200190761C61
S113068007E0780703D520200190761C01E00020C4
S1130690019000200490380711D50198002804D057
S11306A0109A69460198FFF7BFFE01200490109B41
S11306B06A4602993000FFF70CFF029E11E0F8072A
S11306C00FD4109B6A4602993000FFF711FF01987E
S11306D0002804D0109A69460198FFF7A5FE01206E
S11306E004900498002807D10198002804D0109A97
S11306F069460198FFF798FE9AE02068241D03904C
S11307001023002203A907A8FFF7A4FE060007A8E8
S11307108019059000200490380715D5F8060BD5EC
S1130720109A69463020FFF77FFE109A69467820B8
S1130730FFF77AFE01200490109B6A46029930006C
S1130740FFF7C7FE029E18E0F80716D4F80600D596
S1130750B61C109B6A4602993000FFF7C9FEF806E2
S11307600BD5109A69463020FFF75EFE109A694651
S11307707820FFF759FE01200490F8060DD504985F
S113078000280AD1109A69463020FFF74DFE109ACE
S113079069467820FFF748FEB61C49E02068241D0E
S11307A003900823002203A907A8FFF753FE0600BD
S11307B01FE02068241D03900223002203A907A838
S11307C0FFF748FE060014E02068241D0390102360
S11307D0002203A907A8FFF73DFE060009E02068F0
S11307E0241D03900A23002203A907A8FFF732FE61
S11307F0060007A880190590380707D5109B6A469C
S113080002993000FFF765FE029E11E0F8070FD44D
S1130810109B6A4602993000FFF76AFE08E0109ABE
S1130820694605980078FFF7FFFD0598401E05907E
S1130830059800780028F2D1F80705D5109B6A4680
S113084002993000FFF754FE6CE62068241DC0B204
S1130850109A6946FFF7E8FD64E62068241D0190BC
S11308600198002821D0019800F0AAF80600F807A2
S11308700FD4109B6A4602993000FFF739FE08E056
S1130880109A694601980078FFF7CEFD0198401C44
S11308900190019800780028F2D1F80705D5109B43
S11308A06A4602993000FFF723FE3BE62068241DC8
S11308B00099016036E6009811B0F0BD0EB400B5A1
S11308C084B0012100910549019105AA01006846FF
S11308D0FFF71DFE049908B008470000B117000097
S11308E0F446002804D4494200F013F8404260471B
S11308F04042002905D45FD000F00BF84042494241
S11309006047494200F005F84942604703460B43FB
S1130910E6D40022030A8B420BD203098B4219D27C
S113092043088B422ED2411A00D20146524110464E
S11309307047FF2209023FD012068B4205D31212E0
S113094009028B4201D31212090203098B4219D303
S113095000E0090AC3098B4201D3CB01C01A5241FA
S113096083098B4201D38B01C01A524143098B4244
S113097001D34B01C01A524103098B4201D30B012D
S1130980C01A5241C3088B4201D3CB00C01A524152
S113099083088B4201D38B00C01A524143088B4217
S11309A001D34B00C01A5241884200D3401A52412D
S11309B0CFD201461046704708B500F011F808BDC3
S11309C000B501000020002902D1002006E0401CEF
S11309D00A001100491C1278002AF8D100BD000059
S11309E07047000080B500208749086000F064F972
S11309F000F0B0F900F01EFA00F003F800F0F8FA85
S1130A00FEE780B581480068000F4007400F0028CA
S1130A1006D002280CD007D3042811D00CD313E03D
S1130A207B48FFF74BFF12E07A48FFF747FF0EE0E1
S1130A307948FFF743FF0AE07848FFF73FFF06E0F5
S1130A407748FFF73BFF02E07648FFF737FF6F4830
S1130A500068000E4007400F022807D01AD304286C
S1130A600CD007D3062811D00CD313E06EA0FFF7E7
S1130A7025FF12E06DA0FFF721FF0EE06CA0FFF749
S1130A801DFF0AE06BA0FFF719FF06E06AA0FFF75D
S1130A9015FF02E06948FFF711FF69A0FFF70EFF99
S1130AA05A4800680007000F002812D0012814D00B
S1130AB0022816D0042818D005281AD006281CD0DD
S1130AC007281ED0082820D0092822D00A2824D09C
S1130AD027E05C48FFF7F2FE26E05B48FFF7EEFEF6
S1130AE022E05A48FFF7EAFE1EE05948FFF7E6FE07
S1130AF01AE05848FFF7E2FE16E05748FFF7DEFE1B
S1130B0012E05648FFF7DAFE0EE05548FFF7D6FE2E
S1130B100AE05448FFF7D2FE06E05348FFF7CEFE42
S1130B2002E05248FFF7CAFE38480068000C40074C
S1130B30400F00280BD0022811D00CD3042816D063
S1130B4011D306281BD016D307281CD01FE0484811
S1130B50FFF7B4FE1EE04748FFF7B0FE1AE0464830
S1130B60FFF7ACFE16E04548FFF7A8FE12E0444844
S1130B70FFF7A4FE0EE04348FFF7A0FE0AE0424858
S1130B80FFF79CFE06E04148FFF798FE02E040486C
S1130B90FFF794FE0F2189B23E48FFF78FFE3E48CF
S1130BA00068000E0007000F00280CD001280ED0AA
S1130BB0032810D0052812D0072814D0092816D0ED
S1130BC00F2818D01BE03548FFF778FE1AE03448A8
S1130BD0FFF774FE16E03348FFF770FE12E0324868
S1130BE0FFF76CFE0EE03148FFF768FE0AE030487C
S1130BF0FFF764FE06E02B48FFF760FE02E02D4895
S1130C00FFF75CFE01BD0000008104402480044025
S1130C10B0180000B8180000C0180000C818000080
S1130C20D0180000B01400003200000033000000AF
S1130C3034000000350000003600000008140000F5
S1130C4020200000F417000004180000141800000D
S1130C502418000034180000441800005418000040
S1130C606418000074180000841800003414000094
S1130C701017000024170000381700004C1700005C
S1130C806017000074170000881700009C1700000C
S1130C90F0150000941800004C800440C8110000B6
S1130CA004120000401200007C120000B812000080
S1130CB0F41200000C16000000B51C481C498842C0
S1130CC00ED0002008E01A49042242438958174AEA
S1130CD004234343D150401C822149008842F2D36B
S1130CE01449154A1548801A03E013780B70521CF6
S1130CF0491C0300581E002BF7D111491148401A12
S1130D0002E000220A70491C0200501E002AF8D199
S1130D100D490E4A0E48801A03E013780B70521CDA
S1130D20491C0300581E002BF7D100BD00FEFF1F15
S1130D3000000000000000000000000000000000AF
S1130D40100200202402002024020020D8180000F1
S1130D50D818000080B52A480068C021C9000143A2
S1130D602748016027480078000705D52548007802
S1130D70082101432348017000F078F922490860F2
S1130D8021480068002802D120481F4908602048F3
S1130D9000688021C90401431D4801601A480068A5
S1130DA01C49086018480068FA218900FFF7AEFD65
S1130DB0194908601848006818490968090F491C4E
S1130DC0FFF7A7FD1649086015480068134909682C
S1130DD0090C4907490F491CFFF79BFD114908609D
S1130DE08020800010490860802080000F4908603E
S1130DF09622D201074801680D4800F05DF901BD53
S1130E003880044002D0074010020020405489007A
S1130E100480044020020020140200204480044086
S1130E20180200201C02002004A0044008A0044072
S1130E300040054080B555480078800602D55448E6
S1130E40FFF73CFD51480078000702D55148FFF7F1
S1130E5035FD4E480078400702D54F48FFF72EFD78
S1130E604A480078800702D54C48FFF727FD4C48D4
S1130E700078000602D54B48FFF720FD484800786B
S1130E80400602D54848FFF719FD4548007880061A
S1130E9002D54648FFF712FD41480078800702D585
S1130EA04348FFF70BFD3E480078C00757D541483B
S1130EB0FFF704FD40480178C9B24048FFF7FEFC43
S1130EC03F480178C9B23F48FFF7F8FC3E48017833
S1130ED0C9B23E48FFF7F2FC3D480178C9B23D482B
S1130EE0FFF7ECFC36480078C0B24007400F0328F7
S1130EF002D13948FFF7E2FC31480078C0B240071C
S1130F00400F042809D130480078C0B24007400F90
S1130F10012802D13148FFF7D1FC29480078C0B23A
S1130F204007400F042809D127480078C0B2400781
S1130F30400F022802D12A48FFF7C0FC204800785D
S1130F40C0B24007400F042809D11F480078C0B23E
S1130F504007400F032802D12248FFF7AFFC104896
S1130F600078C0B2002810D108480078C0B2002828
S1130F700BD10B480178C9B21B48FFF79FFC03480B
S1130F800178C9B21948FFF799FC01BD01F0074087
S1130F9000150000C4170000D4170000B8150000A5
S1130FA000F00740E4170000E81600007016000087
S1130FB0D4150000A413000000E0074058150000F9
S1130FC001E007407815000002E007402415000006
S1130FD003E0074098150000FC1600008816000086
S1130FE0A0160000B8160000601400008814000069
S1130FF080B518480068C021C90001431548016044
S113100015480068802149000143134801601348D2
S113101000688021090101431048016010480068FC
S11310208021090101430E4801600121FA2040009A
S113103000F072F8FEE70B4800688021014309487C
S113104001600948006880210901014306480160E4
S113105070470000388004402CA0044054F00F4036
S113106044F00F40000004404CF00F4000B50D4820
S11310700078802101430B48017000200A49087060
S1131080002000E0401C094909780C22114202D0DA
S113109007498842F6D30649884201D2054800E050
S11310A0002000BD184006400040064006400640AF
S11310B0204E0000006CDC0210B504000800110092
S11310C0104A126880235B0313430E4A1360002204
S11310D0A2602268120ED206D20E521CD2B2514322
S11310E0FFF714FC2168490B49032160216880B291
S11310F0C004C00C08432060A068C0210903014358
S1131100A16010BD3880044000B542681202FCD5CD
S1131110C9B2C16000BD000080B5144A1268012341
S11311201343124A1360124A126801239A43104B64
S11311301A608907890F04220A430F490A6080B2A2
S11311400C4908600A48006880210143084801608E
S1131150C02007490860064800680121014304488B
S113116001601C2000F00AF801BD00003880044032
S113117000000440080004400400044070B504006A
S1131180212C03DB0D48FFF799FB15E00C4805689B
S1131190012620002021FFF7B9FB8E402E4308488A
S11311A0066008480568012620002021FFF7AEFBF1
S11311B08E402E430348066070BD00006C1300008F
S11311C080E200E000E100E0466C6173682073692E
S11311D07A653A202038204B422070726F67726122
S11311E06D20666C6173682C20302E3235204B42A2
S11311F02070726F74656374696F6E2072656769BD
S11312006F6E0A00466C6173682073697A653A20D0
S1131210203136204B422070726F6772616D2066F8
S11312206C6173682C20302E35204B422070726F15
S113123074656374696F6E20726567696F6E0A0006
S1131240466C6173682073697A653A2020333220D2
S11312504B422070726F6772616D20666C617368B7
S11312602C2031204B422070726F74656374696F57
S11312706E20726567696F6E0A000000466C6173C8
S1131280682073697A653A20203634204B422070F6
S1131290726F6772616D20666C6173682C203220F6
S11312A04B422070726F74656374696F6E2072654F
S11312B067696F6E0A000000466C61736820736989
S11312C07A653A2020313238204B422070726F67A1
S11312D072616D20666C6173682C2034204B42204F
S11312E070726F74656374696F6E20726567696F7D
S11312F06E0A0000466C6173682073697A653A204F
S113130020323536204B422070726F6772616D2037
S1131310666C6173682C2038204B422070726F74A5
S1131320656374696F6E20726567696F6E0A000089
S113133070B40121002313E00468001D0C4202D0A4
S11313404D466D1E64192360241D121F042AFAD20F
S11313502500960701D52380AD1C0A4000D02B70D0
S11313600268001D002AE7D170BC70470A4552523A
S11313702120496E76616C6964204952512076615E
S11313806C75652070617373656420746F20656E7D
S113139061626C65206972712066756E6374696F31
S11313A06E210A005B6F75745352535D57616B6510
S11313B0757020626974207365742066726F6D2085
S11313C06C6F7720706F776572206D6F6465206530
S11313D07869740A000000000A2A2A2A2A646566C9
S11313E061756C745F69737220656E74657265648F
S11313F0206F6E20766563746F722025642A2A2A12
S11314002A2A0D0A0A0000000A556E7265636F6786
S11314106E697A6564204B696E65746973207375AF
S1131420622D66616D696C79206465766963652EE9
S11314300A0000000A556E7265636F676E697A650B
S113144064204B696E65746973207061636B6167B6
S11314506520636F64652E2020202020200000007A
S11314605B6F75745352535D52434D5F5352533007
S1131470206973205A45524F2020203D20252330D7
S11314803258200D0A0000005B6F75745352535D8F
S113149052434D5F53525331206973205A45524F82
S11314A02020203D202523303258200D0A00000042
S11314B00A556E7265636F676E697A6564204B695D
S11314C06E657469732066616D696C7920646576F4
S11314D06963652E0A00000010B507497944183184
S11314E0064C7C44163404E0081D0A6889188847B1
S11314F00100A142F8D110BD500000005C000000C2
S113150053746F70204D6F64652041636B6E6F7709
S11315106C65646765204572726F722052657365ED
S1131520740A00005B6F75745352535D534D435FEF
S113153053544F504354524C2020203D20252330F7
S11315403258200D0A000000E9FDFFFF14000000DE
S113155010020020000000005B6F75745352535D4D
S1131560534D435F504D50524F542020203D202571
S113157023303258200D0A005B6F75745352535D4B
S1131580534D435F504D4354524C2020203D202561
S113159023303258200D0A005B6F75745352535D2B
S11315A0534D435F504D535441542020203D20253A
S11315B023303258200D0A00436F7265204C6F634C
S11315C06B7570204576656E742052657365740A78
S11315D0000000004C6F772D766F6C746167652096
S11315E04465746563742052657365740A00000071
S11315F00A556E7265636F676E697A65642053522B
S1131600414D2053697A652E0A000000455252214B
S11316102120556E646566696E656420666C61732D
S1131620682073697A650A0000F00BF8002801D07D
S1131630FFF752FF0020C046C046FFF7D9FC00F078
S113164002F80120704780B500F002F801BD0000E7
S11316500746384600F002F8FBE7000080B5C046B4
S1131660C046024A11001820ABBEFBE72600020068
S11316705761746368646F6728434F50292052652B
S11316807365740A000000005B6F75745352535DF8
S113169020564C4C53312065786974200A000000B0
S11316A05B6F75745352535D20564C4C5332206516
S11316B0786974200A0000005B6F75745352535D9F
S11316C020564C4C53332065786974200A0000007E
S11316D080B503480178C9B20248FFF7EFF801BDAD
S11316E004ED00E0D813000045787465726E616CF7
S11316F02050696E2052657365740A005B6F7574BF
S11317005352535D204C4C532065786974200A0071
S11317105352414D2053697A653A20302E35204B7F
S1131720420A00005352414D2053697A653A202001
S113173031204B420A0000005352414D2053697A34
S1131740653A202032204B420A0000005352414D9A
S11317502053697A653A202034204B420A00000065
S11317605352414D2053697A653A202038204B4228
S11317700A0000005352414D2053697A653A2020F3
S11317803136204B420A00005352414D2053697AAE
S1131790653A20203332204B420A00005352414D17
S11317A02053697A653A20203634204B420A0000DF
S11317B080B50100C9B20248FFF7A6FC01BD0000D4
S11317C0004005404D444D2D4150205265736574D1
S11317D00A000000536F6674776172652052657366
S11317E065740A00506F7765722D6F6E20526573B1
S11317F065740A00313670696E2020202020202074
S113180000000000323470696E2020202020202047
S113181000000000333270696E2020202020202038
S113182000000000343870696E2020202020202021
S113183000000000363470696E2020202020202013
S113184000000000383070696E2020202020202005
S113185000000000383170696E20202020202020F4
S11318600000000031303070696E202020202020DC
S11318700000000031323170696E202020202020C9
S11318800000000031343470696E202020202020B4
S11318900000000053696C69636F6E2072657620E6
S11318A025640A00C046C046C046C046FFF7BCFED9
S11318B00A4B4C30000000000A4B4C310000000081
S11318C00A4B4C32000000000A4B4C33000000006D
S10B18D00A4B4C340000000037
S90318A53F
