S01300006164635F66726565646F6D2E73726563A8
S1130000F805002011040000E5160000E5160000C4
S1130010E5160000E5160000E5160000E5160000F0
S1130020E5160000E5160000E5160000E5160000E0
S1130030E5160000E5160000E5160000E5160000D0
S1130040E5160000E5160000E5160000E5160000C0
S1130400FFFFFFFFFFFFFFFFFFFFFFFFFEFFFFFFF9
S113041000200021002200230024002500260027BC
S113042062B600F01FFBFEE770B504000D00160075
S11304303068012802D0022805D00BE02000C0B2A9
S11304407168884706E02000B1680870B068401CF5
S1130450B060FFE72868401C286070BDFFB584B019
S11304600020060004980500002028706D1C0698E2
S1130470002825D00598006801900198002803D130
S113048030202870761C3FE0019800283CD0019869
S1130490079900F079FA039001980399079A514358
S11304A0401A0700002F03D5F8430700313700E056
S11304B0303703980190380028706D1C761CE3E7F0
S11304C00598006800900098002803D13020287017
S11304D0761C19E00098002816D00098079900F0BF
S11304E056FA029000980299079A5143401A040060
S11304F00A2C01D2303400E03734029800902000F6
S113050028706D1C761CE5E7300008B0F0BDF8B526
S113051007000E0015003C00B44206DA009A2900D8
S11305203020FFF781FF641CF6E7F1BDF8B5070042
S11305300E0015003C00B44206DA009A290020207F
S1130540FFF772FF641CF6E7F1BDF3B595B0140034
S11305500020009016980500287802900298002840
S113056000D1E1E10298252813D002980A2805D089
S1130570159A69460298FFF757FF09E0159A6946EC
S11305800D20FFF751FF159A69460A20FFF74CFF2B
S1130590C8E100200700002005900598002824D118
S11305A06D1C2878202810D0232816D02B2808D09A
S11305B02D2802D030280CD013E03800012707433F
S11305C0EBE7380002270743E7E73800042707432F
S11305D0E3E7380008270743DFE73800102707431D
S11305E0DBE76D1E01200590D7E700200190002075
S11305F005900598002812D16D1C28780290029865
S11306003038092807D801980A214843029940182C
S113061030380190EDE76D1E01200590E9E76D1C6F
S113062028782E280ED100200590059800280AD19C
S11306306D1C28783038092800D8F6E76D1E012093
S11306400590F2E76D1E6D1C28784C2806D06828AA
S113065002D06C2801D002E002E001E000E06D1E4F
S11306606D1C287802900298582872D0622800D114
S1130670CCE0632800D116E1642813D0692811D096
S11306806E2800D142E16F2800D1B4E0702800D177
S1130690C7E0732800D110E1752800D1CCE0782898
S11306A057D03AE12068241D09900A23012209A9A0
S11306B00CA8FFF7D3FE06000CA88019089009982F
S11306C0002803D52D200490761C0DE0B80703D52F
S11306D02B200490761C07E0780703D52020049093
S11306E0761C01E00020049000200690380712D503
S11306F00498002804D0159A69460498FFF794FEDC
S113070001200690159B6A4601993000FFF7FFFE11
S11307100198060011E0F8070FD4159B6A46019969
S11307203000FFF703FF0498002804D0159A6946A7
S11307300498FFF779FE012006900698002807D157
S11307400498002804D0159A69460498FFF76CFEB3
S113075092E02068241D03901023002203A90CA812
S1130760FFF77CFE06000CA8801908900020069074
S1130770380716D5F8060BD5159A69463020FFF7C9
S113078053FE159A69467820FFF74EFE0120069025
S1130790159B6A4601993000FFF7B9FE01980600DF
S11307A018E0F80716D4F80600D5B61C159B6A465F
S11307B001993000FFF7BAFEF8060BD5159A694681
S11307C03020FFF731FE159A69467820FFF72CFE9A
S11307D001200690F8060DD5069800280AD1159A2E
S11307E069463020FFF720FE159A69467820FFF706
S11307F01BFEB61C40E02068241D03900823002241
S113080003A90CA8FFF72AFE06001FE02068241D98
S113081003900223002203A90CA8FFF71FFE060081
S113082014E02068241D03901023002203A90CA8BF
S1130830FFF714FE060009E02068241D03900A2334
S1130840002203A90CA8FFF709FE06000CA88019D2
S11308500890380708D5159B6A4601993000FFF7C0
S113086056FE0198060007E0F80705D4159B6A4672
S113087001993000FFF75AFE08980078002809D043
S1130880159A694608980078FFF7CEFD0898401E2F
S11308900890F1E7F80705D5159B6A4601993000E1
S11308A0FFF744FE3EE02068241DC0B20A90159A6A
S11308B069460A98FFF7B8FD34E02068241D0790C4
S11308C00798002821D0079800F0B8F80600F80728
S11308D005D4159B6A4601993000FFF727FE079857
S11308E00078002809D0159A694607980078FFF720
S11308F09BFD0798401C0790F1E7F80705D5159B69
S11309006A4601993000FFF711FE0BE02068241DB0
S11309100B9000980B99086004E0159A69460298B8
S1130920FFF782FD6D1C17E6009817B0F0BD0EB4FA
S11309307EB50500012000900748019007A8060035
S1130940320029006846FFF700FE0400200003B0CF
S1130950039970BC04B00847C5170000F44600288A
S113096004D4494200F013F8404260474042002951
S113097005D45FD000F00BF8404249426047494239
S113098000F005F84942604703460B43E6D40022D1
S1130990030A8B420BD203098B4219D243088B42C0
S11309A02ED2411A00D20146524110467047FF220E
S11309B009023FD012068B4205D3121209028B4260
S11309C001D31212090203098B4219D300E0090A68
S11309D0C3098B4201D3CB01C01A524183098B4214
S11309E001D38B01C01A524143098B4201D34B01FD
S11309F0C01A524103098B4201D30B01C01A524160
S1130A00C3088B4201D3CB00C01A524183088B42E6
S1130A1001D38B00C01A524143088B4201D34B00CF
S1130A20C01A5241884200D3401A5241CFD20146E3
S1130A301046704708B500F013F808BD00B5010072
S1130A400A000023002A01D1002008E0100002005F
S1130A50521C0078002801D05B1CF7E7180000BD89
S1130A607047000080B500208849086000F066F9EE
S1130A7000F0BEF900F02CFA00F003F800F013FBCC
S1130A80FEE710B582480068000F4007400F0028B9
S1130A9006D002280CD007D3042811D00CD313E0BD
S1130AA07C48FFF744FF12E07B48FFF740FF0EE06D
S1130AB07A48FFF73CFF0AE07948FFF738FF06E081
S1130AC07848FFF734FF02E07748FFF730FF7048BB
S1130AD00068000E4007400F022807D01AD30428EC
S1130AE00CD007D3062811D00CD313E06FA0FFF766
S1130AF01EFF12E06EA0FFF71AFF0EE06DA0FFF7D5
S1130B0016FF0AE06CA0FFF712FF06E06BA0FFF7E8
S1130B100EFF02E06A48FFF70AFF6AA0FFF707FF2B
S1130B205B4800680007000F002812D0012814D089
S1130B30022816D0042818D005281AD006281CD05C
S1130B4007281ED0082820D0092822D00A2824D01B
S1130B5027E05D48FFF7EBFE26E05C48FFF7E7FE81
S1130B6022E05B48FFF7E3FE1EE05A48FFF7DFFE92
S1130B701AE05948FFF7DBFE16E05848FFF7D7FEA6
S1130B8012E05748FFF7D3FE0EE05648FFF7CFFEBA
S1130B900AE05548FFF7CBFE06E05448FFF7C7FECE
S1130BA002E05348FFF7C3FE39480068000C4007D1
S1130BB0400F00280BD0022811D00CD3042816D0E3
S1130BC011D306281BD016D307281CD01FE0494890
S1130BD0FFF7ADFE1EE04848FFF7A9FE1AE04748BC
S1130BE0FFF7A5FE16E04648FFF7A1FE12E04548D0
S1130BF0FFF79DFE0EE04448FFF799FE0AE04348E4
S1130C00FFF795FE06E04248FFF791FE02E04148F7
S1130C10FFF78DFE0F200400A4B221003E48FFF729
S1130C2086FE3E480068000E0007000F00280CD026
S1130C3001280ED0032810D0052812D0072814D07C
S1130C40092816D00F2818D01BE03548FFF76FFE8F
S1130C501AE03448FFF76BFE16E03348FFF767FEEF
S1130C6012E03248FFF763FE0EE03148FFF75FFE03
S1130C700AE03048FFF75BFE06E02B48FFF757FE1B
S1130C8002E02D48FFF753FE10BD00000081044030
S1130C9024800440D0180000D8180000E018000098
S1130CA0E8180000F0180000A4140000320000004E
S1130CB0330000003400000035000000360000005E
S1130CC0FC13000020200000081800001818000081
S1130CD028180000381800004818000058180000B0
S1130CE068180000781800008818000098180000A0
S1130CF02814000024170000381700004C170000C7
S1130D006017000074170000881700009C1700008B
S1130D10B017000004160000A81800004C8004401E
S1130D20F4110000301200006C120000A812000040
S1130D30E41200002013000020160000FCB5224C31
S1130D40224DAC420FD00024230082246400A3422D
S1130D5009D21E4C04255D4364591B4D04265E4391
S1130D60AC515B1CF1E71A4C22001A4C21001A4CBE
S1130D700194019C641A23001C00631E002C04D0FF
S1130D800C781470491C521CF6E7144C2000144CC7
S1130D900094009C241A23001C00631E002C03D022
S1130DA000240470401CF7E70E4C0F4D0F4E771BC8
S1130DB03B001F007B1E002F04D02F7827706D1C72
S1130DC0641CF6E7F3BD00BF00FEFF1F0000000037
S1130DD000000000000000000000000010020020DD
S1130DE02402002024020020F8180000F818000053
S1130DF080B52A480068C021C90001432748016022
S1130E0027480078000705D52548007808210143C4
S1130E102348017000F062F9224908602148006803
S1130E20002802D120481F4908602048006880211A
S1130E30C90401431D4801601A4800681C49086040
S1130E4018480068FA218900FFF79EFD19490860D7
S1130E501848006818490968090F491CFFF797FDED
S1130E60164908601548006813490968090C4907C0
S1130E70490F491CFFF78BFD114908608020800051
S1130E8010490860802080000F4908609622D20132
S1130E90074801680D4800F049F901BD3880044055
S1130EA002D007401002002040548900048004400E
S1130EB02002002014020020448004401802002074
S1130EC01C02002004A0044008A004400040054087
S1130ED080B555480078800602D55448FFF727FDB1
S1130EE051480078000702D55148FFF720FD4E48CD
S1130EF00078400702D54F48FFF719FD4A480078AB
S1130F00800702D54C48FFF712FD4C4800780006D4
S1130F1002D54B48FFF70BFD48480078400602D540
S1130F204848FFF704FD45480078800602D5464846
S1130F30FFF7FDFC41480078800702D54348FFF7DE
S1130F40F6FC3E480078C00757D54148FFF7EFFC50
S1130F5040480178C9B24048FFF7E9FC3F480178AE
S1130F60C9B23F48FFF7E3FC3E480178C9B23E48A6
S1130F70FFF7DDFC3D480178C9B23D48FFF7D7FCD7
S1130F8036480078C0B24007400F032802D13948E0
S1130F90FFF7CDFC31480078C0B24007400F042869
S1130FA009D130480078C0B24007400F012802D16F
S1130FB03148FFF7BCFC29480078C0B24007400F15
S1130FC0042809D127480078C0B24007400F0228FE
S1130FD002D12A48FFF7ABFC20480078C0B2400792
S1130FE0400F042809D11F480078C0B24007400FC1
S1130FF0032802D12248FFF79AFC10480078C0B2B7
S1131000002810D108480078C0B200280BD10B4842
S11310100178C9B21B48FFF78AFC03480178C9B2BA
S11310201948FFF784FC01BD01F00740F4140000E7
S1131030D8170000E8170000CC15000000F00740A6
S1131040F8170000FC16000084160000E8150000E4
S11310509813000000E007406C15000001E0074011
S11310608C15000002E007401815000003E007405B
S1131070AC150000101700009C160000B416000008
S1131080CC160000541400007C14000000B50028A5
S113109008D0FA2252001100002901D0491EFBE7B2
S11310A0401EF4E700BD10B500240A48FFF73FFCDA
S11310B000F072F81D2000F07AF800F088F80400BF
S11310C0A4B221000448FFF732FC6420FFF7DEFFDE
S11310D0F0E700004C150000B818000000B50E48F9
S11310E00078802202430C48027000200B4A1070E2
S11310F0002001000A4800780C22104204D009485C
S1131100814201D2491CF5E70648814201D20648D2
S113111000E0002000BD00BF18400640004006402B
S113112006400640204E0000006CDC02F8B50400C6
S11311300D0016001348006880214903014311483B
S113114001600020A0602068000EC006C00E401C94
S1131150070028003100FFB27943FFF715FC694608
S113116008802068400B4003206020686946098895
S1131170C904C90C01432160A068C02109030143CB
S1131180A160F1BD3880044000B542681202FCD56C
S1131190C9B2C16000BD0000114800688021090582
S11311A001430F4801602B200E490860704700B5C9
S11311B00100C9B21B2905D10B4800780122024362
S11311C009480270C9B209480160012000BD00B598
S11311D0064800680006FBD50548006800BD00000D
S11311E03C80044008B0034002D0074000B00340F4
S11311F010B00340466C6173682073697A653A20C5
S11312002038204B422070726F6772616D20666CCB
S11312106173682C20302E3235204B422070726F5F
S113122074656374696F6E20726567696F6E0A0016
S1131230466C6173682073697A653A2020313620E0
S11312404B422070726F6772616D20666C617368C7
S11312502C20302E35204B422070726F74656374DD
S1131260696F6E20726567696F6E0A00466C617300
S1131270682073697A653A20203332204B4220700B
S1131280726F6772616D20666C6173682C20312007
S11312904B422070726F74656374696F6E2072655F
S11312A067696F6E0A000000466C61736820736999
S11312B07A653A20203634204B422070726F677270
S11312C0616D20666C6173682C2032204B42207063
S11312D0726F74656374696F6E20726567696F6E8F
S11312E00A000000466C6173682073697A653A20CD
S11312F020313238204B422070726F6772616D204A
S1131300666C6173682C2034204B422070726F74B9
S1131310656374696F6E20726567696F6E0A000099
S1131320466C6173682073697A653A2020323536D9
S1131330204B422070726F6772616D20666C61731E
S1131340682C2038204B422070726F746563746976
S11313506F6E20726567696F6E0A000070B40121B8
S1131360002313E00468001D0C4202D04D466D1E9C
S113137064192360241D121F042AFAD2250096073B
S113138001D52380AD1C0A4000D02B700268001DDB
S1131390002AE7D170BC70475B6F75745352535D7C
S11313A057616B657570206269742073657420667B
S11313B0726F6D206C6F7720706F776572206D6F20
S11313C0646520657869740A000000000A2A2A2AE4
S11313D02A64656661756C745F69737220656E74E6
S11313E065726564206F6E20766563746F72202564
S11313F0642A2A2A2A2A0D0A0A0000000A556E7253
S113140065636F676E697A6564204B696E6574699C
S113141073207375622D66616D696C7920646576DD
S11314206963652E0A0000000A556E7265636F6772
S11314306E697A6564204B696E65746973207061A6
S1131440636B61676520636F64652E202020202014
S1131450200000005B6F75745352535D52434D5F1F
S113146053525330206973205A45524F2020203D57
S1131470202523303258200D0A0000005B6F75745C
S11314805352535D52434D5F53525331206973207D
S11314905A45524F2020203D202523303258200D1C
S11314A00A0000000A556E7265636F676E697A659B
S11314B064204B696E657469732066616D696C792B
S11314C0206465766963652E0A00000010B507493B
S11314D079441831064C7C44163404E0081D0A682B
S11314E0891888470100A142F8D110BD50000000BE
S11314F05C00000053746F70204D6F64652041637D
S11315006B6E6F776C65646765204572726F7220CD
S113151052657365740A00005B6F75745352535DB2
S1131520534D435F53544F504354524C2020203D5D
S1131530202523303258200D0A00000021FEFFFF31
S11315401400000010020020000000000A52756E12
S11315506E696E6720616463206578616D706C6587
S11315602070726F6A6563742E0A00005B6F757475
S11315705352535D534D435F504D50524F542020AE
S1131580203D202523303258200D0A005B6F7574EE
S11315905352535D534D435F504D4354524C20209E
S11315A0203D202523303258200D0A005B6F7574CE
S11315B05352535D534D435F504D53544154202077
S11315C0203D202523303258200D0A00436F7265D8
S11315D0204C6F636B7570204576656E7420526580
S11315E07365740A000000004C6F772D766F6C747D
S11315F0616765204465746563742052657365741E
S11316000A0000000A556E7265636F676E697A6539
S113161064205352414D2053697A652E0A0000001C
S1131620455252212120556E646566696E656420B9
S1131630666C6173682073697A650A0000F00BF8C0
S1131640002801D0FFF742FF0020C046C046FFF744
S11316502AFD00F002F80120704780B500F002F87E
S113166001BD00000746384600F002F8FBE7000021
S113167080B5C046C046024A11001820ABBEFBE745
S1131680260002005761746368646F6728434F50F3
S1131690292052657365740A000000005B6F75743D
S11316A05352535D20564C4C533120657869742055
S11316B00A0000005B6F75745352535D20564C4C06
S11316C053322065786974200A0000005B6F7574DA
S11316D05352535D20564C4C533320657869742023
S11316E00A00000080B503480178C9B20248FFF738
S11316F01EF901BD04ED00E0CC13000045787465CB
S1131700726E616C2050696E2052657365740A00B4
S11317105B6F75745352535D204C4C53206578694C
S113172074200A005352414D2053697A653A20309F
S11317302E35204B420A00005352414D2053697A02
S1131740653A202031204B420A0000005352414D9B
S11317502053697A653A202032204B420A00000067
S11317605352414D2053697A653A202034204B422C
S11317700A0000005352414D2053697A653A2020F3
S113178038204B420A0000005352414D2053697ADD
S1131790653A20203136204B420A00005352414D15
S11317A02053697A653A20203332204B420A0000E4
S11317B05352414D2053697A653A20203634204BE8
S11317C0420A000010B504002100C9B20148FFF725
S11317D0DBFC10BD004005404D444D2D41502052CE
S11317E0657365740A000000536F667477617265EF
S11317F02052657365740A00506F7765722D6F6EA1
S11318002052657365740A00313670696E20202099
S11318102020202000000000323470696E20202037
S11318202020202000000000333270696E20202028
S11318302020202000000000343870696E20202011
S11318402020202000000000363470696E20202003
S11318502020202000000000383070696E202020F5
S11318602020202000000000383170696E202020E4
S1131870202020200000000031303070696E2020CC
S1131880202020200000000031323170696E2020B9
S1131890202020200000000031343470696E2020A4
S11318A0202020200000000053696C69636F6E20C3
S11318B07265762025640A00566F75743D25640AA6
S11318C000000000C046C046C046C046FFF7B6FE52
S11318D00A4B4C30000000000A4B4C310000000061
S11318E00A4B4C32000000000A4B4C33000000004D
S10B18F00A4B4C340000000017
S90318C51F
